:020000040800F2
:10000000C00500209D010008952C00089B1E0008DB
:10001000912C000821090008B135000800000000FB
:10002000000000000000000000000000412D00085A
:100030002509000800000000972C0008E52D0008A5
:10004000B7010008B7010008B7010008B7010008B0
:10005000B7010008B7010008B7010008B7010008A0
:10006000B7010008B7010008B7010008B701000890
:10007000B7010008B7010008B7010008B701000880
:10008000B7010008B7010008B1070008B701000870
:10009000B7010008B7010008B7010008B701000860
:1000A000B7010008B7010008B7010008B701000850
:1000B000B7010008B7010008B7010008B701000840
:1000C000B7010008B7010008B7010008B701000830
:1000D000B7010008A1350008B7010008B701000802
:1000E000B7010008B7010008B7010008B701000810
:1000F000B7010008B7010008B7010008B701000800
:10010000B7010008B7010008B7010008B7010008EF
:10011000B7010008B7010008B7010008B7010008DF
:10012000B7010008B7010008B7010008B7010008CF
:10013000B7010008B7010008B7010008B7010008BF
:10014000B7010008B7010008B7010008B7010008AF
:10015000B7010008B7010008B7010008B70100089F
:10016000B7010008B7010008B7010008B70100088F
:10017000B7010008B7010008B7010008000000003F
:10018000B7010008B7010008DFF80CD000F0FEFA54
:10019000004800479D370008C005002006488047FA
:1001A00006480047FEE7FEE7FEE7FEE7FEE7FEE75C
:1001B000FEE7FEE7FEE7FEE7A52E0008890100083E
:1001C0002DE9F05F0546002092469B46884606468C
:1001D000814640241BE0284641464746224600F01F
:1001E0001FFA53465A46C01A914110D31146184679
:1001F000224600F006FA2D1A67EB01084F46224608
:100200000120002100F0FDF917EB00094E41201EEE
:10021000A4F10104DFDC484631462A464346BDE8E6
:10022000F09FD2B201E000F8012B491EFBD27047CB
:100230000022F6E710B513460A4604461946FFF7B2
:10024000F0FF204610BD2DE9FE4F804681EA0300F5
:10025000C00F0C46009021F0004123F00045B8EBA0
:100260000200A94105D24046214690461C460B4655
:10027000024623F00040104347D0270DC7F30A0081
:10028000C3F30A510290401A019040286BDAC3F37D
:10029000130040F4801B0098924620B10023D2EB5B
:1002A000030A63EB0B0B01985946C0F1400250461C
:1002B00000F0A7F906460D4650465946019A00F04F
:1002C000BFF910EB08006141002487EA115284EA6B
:1002D000E7731A4340D0009A62B3019A012A4FEAA9
:1002E000075215DC001B61EB02014FF0004202EAED
:1002F0000752CDE90042001C41F5801132462B46E1
:1003000000F0F6F903B0BDE8F08F40462146F9E76A
:10031000001B61EB0201001C41F5801300185B41DA
:100320002018A2F5001747EB030140EAD570B61973
:100330006D4111E06D084FEA360645EAC0754FEA97
:100340000752001B61EB0201001C41F580114908B6
:100350004FEA30000019514132462B4603B0BDE848
:10036000F04F00F0B6B90098012240000023D0EB16
:10037000020263EBE073009821464FEAE074B8EBA9
:10038000000061EB0401E9E783F000435BE781F0E3
:10039000004158E72DE9FE4F81EA030404F00044D0
:1003A00021F0004100944FF0000B23F0004350EA8D
:1003B00001045ED052EA03045BD0C3F30A54C1F3D4
:1003C0000A552C44A4F2F3340194A0FB0254C1F367
:1003D000130141F48011C3F3130343F4801301FBB1
:1003E000024400FB034E840A970A44EA815447EA18
:1003F0008357A4FB076802958D0A05FB07854FEA22
:10040000932C04FB0C542705029D4FEA065847EA3B
:100410001637B5EB08056EEB070C870E920E47EA10
:10042000811742EA8312A7FB0201B6EB0B0164EBD2
:1004300000042B0D43EA0C335E1844EB1C50DA46E3
:100440005146E7FB0201C5F313044FEA0B3343EABD
:1004500014534FEA0432019C43EA0603A4F10C044E
:100460000294009CCDE900B400F042F903B0BDE86D
:10047000F08F00200146F9E72DE9F04D81EA0304F1
:1004800004F0004B21F0004514464FF0000A23F021
:10049000004150EA050220D054EA01021DD0C5F304
:1004A0000A570246C5F31303C1F31300C1F30A56FA
:1004B00040F4801543F48013A7EB0608101BD646C2
:1004C00008F2FD3873EB050002D308F1010801E0E2
:1004D00092185B41B8F1000F03DA00200146BDE835
:1004E000F08D00204FF48011064684460EE0171B65
:1004F00073EB050705D3121B63EB050306434CEAB8
:10050000010C49084FEA300092185B4150EA01079C
:10051000EDD152EA030012D082EA040083EA050119
:10052000084305D0101BAB4106D20122002306E090
:1005300000224FF0004302E06FF0010253101AEB6B
:1005400006004CEB085110EB0A0041EB0B01BDE833
:10055000F04D00F0BEB80EB5C10F80EAE07008445F
:10056000CA07002140F233438DE80E000A460B46CD
:1005700000F0BEF803B000BD00F0004230F00040D3
:100580000AD0C10D01F56071C0F3160042EA0151B5
:10059000C20840071143704700200146704701F030
:1005A000004330B421F0004150EA010206D00A0DA8
:1005B000A2F56072C1F31301002A02DC30BC0020F6
:1005C0007047440F44EAC104C100E01830BC00EB9E
:1005D000C25000F047B830B50B460146002020223B
:1005E000012409E021FA02F59D4205D303FA02F540
:1005F000491B04FA02F52844151EA2F10102F1DCA0
:1006000030BD202A04DB203A00FA02F100207047B6
:100610009140C2F1200320FA03F319439040704740
:10062000202A04DB203A21FA02F00021704721FA47
:1006300002F3D040C2F120029140084319467047AE
:10064000202A06DBCB17203A41FA02F043EAE07396
:1006500006E041FA02F3D040C2F120029140084383
:10066000194670470029A8BF7047401C490008BFC1
:1006700020F00100704710B4B0FA80FC00FA0CF0D2
:1006800050EA010404BF10BC704749B1CCF120040A
:1006900021FA04F411FA0CF118BF01212143084397
:1006A000A3EB0C01CB1D4FEA00614FEA102042BFC3
:1006B000002010BC704700EBC35010440029A4BFB9
:1006C00010BC7047401C490008BF20F0010010BC5E
:1006D000704710B5141E73F1000408DA401C41F194
:1006E000000192185B411A4301D120F0010010BDB6
:1006F0002DE9F04D92469B4611B1B1FA81F202E02C
:10070000B0FA80F220329046FFF77BFF04460F4696
:1007100040EA0A0041EA0B0153465A46084313D007
:10072000114653EA010019D0C8F140025046FFF7C4
:1007300077FF05460E46504659464246FFF761FF91
:10074000084305D0012004E020463946BDE8F08D7D
:100750000020054346EAE0762C4337430A986305B8
:10076000E40AA0EB08000022FD0A44EA47540A30DC
:1007700002D500200146E9E7010510196941DDE9CC
:10078000084500196941BDE8F04DA2E7064C074D48
:1007900006E0E06840F0010394E807009847103451
:1007A000AC42F6D3FFF7F4FCE0900008009100089B
:1007B00010B5024800F063FA10BD00007000002080
:1007C00055494A6822F440324A604A6843681A43ED
:1007D0004A600268526822F4807203685A600268B4
:1007E0005368026943EA022203685A600268526849
:1007F00022F0407203685A600268526883681A43A4
:1008000003685A600268926822F4006203689A6082
:1008100002689268C3681A4303689A603F4B826A11
:100820009A4218D00268926822F0706203689A6057
:1008300002689268836A1A4303689A600268926841
:1008400022F0405203689A6002689268C36A1A43B1
:1008500003689A600BE00268926822F07062036895
:100860009A600268926822F0405203689A600268B7
:10087000926822F0020203689A6002689368027E1E
:1008800043EA420203689A602022125CA2B1026825
:10089000526842F4006203685A600268526822F4A7
:1008A000604203685A6002685368426A521E43EA13
:1008B000423203685A6005E00268526822F400621E
:1008C00003685A600268D26A22F470020368DA622E
:1008D0000268D36A828B521E43EA02520368DA62CC
:1008E0000268926822F4007203689A600268936852
:1008F00090F8302043EA422203689A6002689268C6
:1009000022F4806203689A6002689368426943EA4D
:10091000822203689A607047002301400100000FA3
:1009200000BFFEE7704770477047000038B50246C9
:100930000020009000BF92F83C00012801D1022065
:1009400038BD012082F83C0000BF0868092816D98C
:100950001068C0680C780A3C04EB44050724AC40DE
:10096000A0431468E0600C780A3C04EB44048868F7
:10097000A0401468E46820431468E06013E0106845
:1009800000690C7804EB44050724AC40A0431468CC
:1009900020610C7804EB44048868A0401468246942
:1009A0002043146820614868072817D21068406BFC
:1009B0000C79641E04EB84051F24AC40A04314682A
:1009C0006063088880B20C79641E04EB8404A04044
:1009D0001468646B20431468606331E048680D2834
:1009E00017D21068006B0C79E41F04EB84051F24F8
:1009F000AC40A04314682063088880B20C79E41FDF
:100A000004EB8404A0401468246B20431468206322
:100A100016E01068C06A0C790D3C04EB84051F24B5
:100A2000AC40A0431468E062088880B20C790D3CA9
:100A300004EB8404A0401468E46A20431468E06274
:100A4000194B1A4C1068A04206D10868122803D12D
:100A5000586840F480005860144C1068A0421CD1C3
:100A60000868102802D00868112816D1586840F488
:100A700000005860086810280FD10D4800680D4C20
:100A8000B0FBF4F000EB80004000009002E0009822
:100A9000401E009000980028F9D100BF002082F885
:100AA0003C0000BF00BF4BE7002301400020014095
:100AB0006800002040420F0070B52DED0E8B84B011
:100AC00005465C49286888427ED15B4800F0D3F82F
:100AD0005A49088009884FF4A57201FB02F0C1173A
:100AE00000EB11510913564A1180104600880A2163
:100AF00090FBF1F201FB12063046FFF72CFD9FED53
:100B0000510B53EC102BFFF745FC41EC1A0B4C48F2
:100B10000088642190FBF1F201FB12000A2190FB96
:100B2000F1F63046FFF717FD9FED480B53EC102B05
:100B3000FFF730FC41EC1C0B41480088642190FB1E
:100B4000F1F63046FFF707FD53EC1C2BFFF77BFB5C
:100B500053EC1A2BFFF777FBFFF721FD3D490860A7
:100B600008460068FFF708FD9FED3B0B53EC102B88
:100B7000FFF782FCFFF713FD08EE100A9FED380A1D
:100B800028EE000ABDEEC00A10EE104A10204FF603
:100B9000E0710022CDE900210290A2B203235A2184
:100BA000502001F071FE002010214FF6E072034644
:100BB000CDE90021029025225A216E2001F012FC7D
:100BC0004B2C0CDD642C00E030E008DC25480823C9
:100BD00010225A210090322001F0A1FE25E0322C93
:100BE0000ADD4B2C08DC2048082310225A210090F3
:100BF000322001F094FE18E0192C0ADD322C08DCBA
:100C00001A48082310225A210090322001F087FE52
:100C10000BE0002C09DD192C07DC154808231022F5
:100C20005A210090322001F07AFE00BF04B0BDECE2
:100C30000E8B70BD0020014070000020500000208D
:100C4000520000207B14AE47E17A843F9A9999992B
:100C50009999B93F540000206666666666660A4048
:100C60000000C8420C5E00080C5F00080C60000821
:100C70000C610008704701460868C06C704770B589
:100C800004460025002620680068C0F3400520685F
:100C90004068C0F3401695B38EB3206C00F010008E
:100CA00018B9206C40F4007020642068806800F05F
:100CB0004050E8B9207ED8B92068C06A00F47000BE
:100CC00020B12068806800F4806088B9206840689E
:100CD00020F0200021684860206C20F4807020649F
:100CE000206C00F4805018B9206C40F001002064A2
:100CF0002046FFF7E1FE6FF01200216808602068CF
:100D00000068C0F3800520684068C0F3C016E5B3F2
:100D1000DEB3206C00F0100018B9206C40F40050D5
:100D200020642068806800F4401038BB2068806B25
:100D300000F4401020B12068806800F48060E8B9B9
:100D40002068406800F48060C0B92068806800F0C6
:100D5000405098B9207E88B92068406820F0800013
:100D600021684860206C20F480502064206C00F4DE
:100D7000807018B9206C40F0010020642046FFF715
:100D8000D3FD6FF00C00216808602068006800F057
:100D9000010520684068C0F3801685B17EB12068E7
:100DA000006800F0010050B1206C40F480302064F5
:100DB000204600F053F86FF00100216808602068B9
:100DC0000068C0F3401520684068C0F380667DB1BC
:100DD00076B1606C40F0020060646FF02000216822
:100DE00008602046FFF746FF6FF02000216808608A
:100DF00070BD000070B5044600250CB9012070BD1F
:100E00001549A06A884200D000BF206C30B9204646
:100E100000F026F80020606484F83C00206C00F0AC
:100E2000100088B9206C20F4885040F00200206443
:100E30002046FFF7C5FC00206064206C20F0020013
:100E400040F00100206400E0012500BF002084F88C
:100E50003C0000BF2846D2E70100000F70470000A9
:100E600010B586B00446142101A8FFF7E1F91D4929
:100E70002068884233D100BF002000901A480068E3
:100E800040F48070184908600846006800F48070DB
:100E9000009000BF00BF00BF00200090124814382F
:100EA000006840F0010010491439086008460068E5
:100EB00000F00100009000BF00BF08200190032057
:100EC00002900020039001A9084800F039F80022A0
:100ED0001146122000F0CCF9122000F0B9F906B04A
:100EE00010BD0000002001404438024000000240D4
:100EF000014691F83500022803D080204865012082
:100F00007047052081F835000868006820F001006E
:100F10000A6810600020F3E770B5044600F01EF97F
:100F200006462546681C10B104480078054400BFF9
:100F300000F014F9801BA842FAD370BD64000020B1
:100F4000F8B502460B460025002400200021DCE015
:100F5000012606FA01F51E6806EA0504AC4273D1C3
:100F60005E68012E08D05E68022E05D05E68112EE4
:100F700002D05E68122E13D190684F000326BE4047
:100F8000B0434F00DE68BE40304390605068012699
:100F90008E40B0431E79C6F300168E403043506039
:100FA000D0684F000326BE40B0434F009E68BE404D
:100FB0003043D0605E68022E02D05E68122E13D1DC
:100FC000CF0802F1200656F827004E07F70E0F262D
:100FD000BE40B0434F07FF0E1E69BE403043CF08EE
:100FE00002F1200646F8270010684F000326BE4095
:100FF000B0431E7906F003064F00BE403043106038
:101000005E6806F08056B6F1805F7DD100BF002695
:101010000096404E366846F480463E4F3E603E465F
:10102000366806F48046009600BF00BF3A4E8F082F
:1010300056F827008E07370F0F26BE40B043374EB5
:10104000B24202D1002624E05EE0354EB24201D128
:1010500001261EE0334EB24201D1022619E0324E83
:10106000B24201D1032614E0304EB24201D104262F
:101070000FE02F4EB24201D105260AE02D4EB242BA
:1010800001D1062605E02C4EB24201D1072600E030
:1010900008268F073F0FBE4030431F4E8F0846F88B
:1010A0002700264E3068A0435E6806F48036B6F509
:1010B000803F00D12043214E3060361D3068A04370
:1010C0005E6806F40036B6F5003F00D120431B4EA3
:1010D000361D3060361D3068A0435E6806F4801609
:1010E000B6F5801F00D12043144E08363060361DFF
:1010F0003068A0435E6806F40016B6F5001F00D104
:1011000020430E4E0C363060491C1029FFF420AFEE
:10111000F8BD000044380240083801400000024099
:101120000004024000080240000C0240001002408F
:101130000014024000180240001C0240003C014024
:10114000024613690B400BB1012000E000207047FC
:101150000AB1816101E00B048361704701480068B6
:10116000704700005C0000200348006803490978CC
:1011700008440149086070475C00002064000020BA
:1011800010B50D48006840F400700B49086008462F
:10119000006840F4806008600846006840F4807091
:1011A0000860032000F0A2F8002000F007F800F02B
:1011B0002BF8002010BD0000003C024070B5044632
:1011C0000E4800784FF47A71B1FBF0F00C490968D1
:1011D000B1FBF0F5284600F021FC08B1012070BDFC
:1011E000102C07D200222146501E00F041F805487D
:1011F000046001E00120F2E70020F0E76400002035
:10120000680000206000002008B500BF00200090AA
:101210000E48006840F480400C49086008460068A9
:1012200000F48040009000BF00BF00BF002000908D
:10123000081F006840F08050091F086008460068D9
:1012400000F08050009000BF00BF08BD443802404D
:1012500001460846002809DB00F01F0301229A40DE
:1012600043099B0003F1E023C3F8002100BF70474E
:101270002DE9F05F80460D461646002702F0AAF9D8
:10128000074639462A46334601F00700C0F1070AEF
:10129000BAF1040F02D94FF0040A01E0C0F1070AC5
:1012A000D14600F1040ABAF1070F02D24FF0000A4A
:1012B00001E0A0F1030AD4464FF0010A0AFA09FA44
:1012C000AAF1010A0AEA020A0AFA0CFA4FF0010B23
:1012D0000BFA0CFBABF1010B0BEA030B4AEA0B0414
:1012E0002146404602F07EF9BDE8F09F00BF00F0C5
:1012F0000702064B19684FF6FF031940044B0B43D6
:1013000043EA0221014B196000BF70470CED00E079
:101310000000FA0570B504460D460CB9012070BDF9
:101320005848006800F00F00A84209D255490D70D6
:101330000846006800F00F00A84201D00120EEE747
:10134000207800F0020002281DD1207800F004006F
:10135000042805D14C48006840F4E0504A49086030
:10136000207800F00800082805D14748006840F4BC
:101370006040454908604448006820F0F000A168DA
:10138000084341490860207800F00100A8B3606874
:10139000012807D13C4808380068C0F34040B8B97C
:1013A0000120BCE76068022802D06068032807D1EA
:1013B000354808380068C0F3406048B90120AEE7FE
:1013C000314808380068C0F3400008B90120A6E79A
:1013D0002D48006820F00300616808432A4908602E
:1013E000FFF7BCFE064609E0FFF7B8FE801B41F29E
:1013F0008831884202D9032091E707E0224800683B
:1014000000F00C006168B0EB810FEDD11D48006861
:1014100000F00F00A84209D91A490D70084600686B
:1014200000F00F00A84201D0012078E7207800F0FA
:101430000400042807D11448006820F4E050E16853
:10144000084311490860207800F00800082808D1F6
:101450000D48006820F46040216940EAC1000A4953
:10146000086000F03FF808490968C1F30311074A12
:10147000515CC8400649086006480068FFF79EFEB8
:1014800000204CE7003C024008380240C6900008AB
:1014900068000020600000200148006870470000DC
:1014A0006800002000B5FFF7F7FF04490968C1F3A1
:1014B0008221034A515CC84000BD00000838024048
:1014C000D690000800B5FFF7E7FF04490968C1F3AB
:1014D0004231034A515CC84000BD00000838024058
:1014E000D69000082DE9F047002400250026A146EB
:1014F0002548006800F00C0020B1042805D0082819
:101500003AD105E0DFF8849039E0DFF8849036E0E6
:101510001D48001F006800F03F041B48001F0068C2
:1015200000F4800078B11A481749091F0968C1F30F
:101530008811A0FB01700146224600233846FEF7C1
:101540003FFE05460EE011480F49091F0968C1F327
:101550008811A0FB01700146224600233846FEF7A1
:101560002FFE05460848001F0068C0F30140401CDC
:101570004600B5FBF6F902E0DFF8109000BF00BFAF
:101580004846BDE8F0870000083802400024F40017
:1015900040787D01F8B504460CB90120F8BD2078EB
:1015A00000F00100002874D0F948006800F00C0039
:1015B00004280DD0F648006800F00C00082813D16C
:1015C000F348001F006800F48000B0F5800F0BD1D5
:1015D000EF4808380068C0F34040002859D06068E0
:1015E000002856D10120D9E700BF6068B0F5803FE0
:1015F00008D1E7480838006840F48030E4490839E9
:1016000008601EE06068B0F5A02F0DD1E0480838F2
:10161000006840F48020DE49083908600846006808
:1016200040F4803008600CE0D9480838006820F4A5
:101630008030D749083908600846006820F48020C7
:10164000086000BF606890B1FFF788FD054606E0BE
:10165000FFF784FD401B642801D903209EE7CC4896
:1016600008380068C0F340400028F1D011E0FFF7CF
:1016700075FD054606E0FFF771FD401B642801D9A2
:1016800003208BE7C24808380068C0F340400028B8
:10169000F1D1207800F0020002285FD1BC48006838
:1016A00000F00C0058B1BA48006800F00C0008289F
:1016B0001CD1B748001F006800F48000B0B9B448DE
:1016C00008380068C0F3400020B1E068012801D06C
:1016D000012063E7AE480838006820F0F80021696F
:1016E00040EAC100AA490839086037E0E06800B361
:1016F0000120A8490860FFF731FD054606E0FFF725
:101700002DFD401B022801D9032047E7A0480838D7
:101710000068C0F340000028F1D09D4808380068F8
:1017200020F0F800216940EAC100994908390860B1
:1017300014E0002097490860FFF710FD054606E019
:10174000FFF70CFD401B022801D9032026E7904833
:1017500008380068C0F340000028F1D1207800F07C
:10176000080008282CD16069A8B101208A490860C6
:10177000FFF7F4FC054606E0FFF7F0FC401B0228EB
:1017800001D903200AE782486C300068C0F34000AA
:101790000028F1D014E000207F490860FFF7DEFC4C
:1017A000054606E0FFF7DAFC401B022801D90320BA
:1017B000F4E677486C300068C0F340000028F1D1AF
:1017C000207800F00400042870D1002770483830D9
:1017D000006800F0805090B900BF002000906C4875
:1017E0003830006840F08050694938310860084658
:1017F000006800F08050009000BF00BF01276748DC
:10180000006800F48070B0B96448006840F48070EB
:1018100062490860FFF7A2FC054606E0FFF79EFC60
:10182000401B022801D90320B8E65C48006800F498
:1018300080700028F2D000BFA068012808D1544869
:101840006830006840F001005149683108601DE0CF
:10185000A06805280DD14E486830006840F00400AB
:101860004B49683108600846006840F00100086094
:101870000CE047486830006820F0010044496831B6
:1018800008600846006820F00400086000BFA068F7
:10189000A8B1FFF763FC054609E0FFF75FFC401BBA
:1018A00041F28831884202D9032077E626E03848A1
:1018B00068300068C0F340000028EED013E0FFF766
:1018C0004DFC054608E0FFF749FC401B41F288311A
:1018D000884201D9032061E62D4868300068C0F3D2
:1018E00040000028EFD1012F07D129483830006887
:1018F00020F0805026493831086000BFA0690028D8
:1019000045D02348006800F00C0008285DD0A0698D
:10191000022845D100201F490866FFF71FFC054635
:1019200006E0FFF71BFC401B022801D9032035E627
:10193000174808380068C0F340600028F1D1D4E9A6
:1019400007010843616A40EA81110122A06AC2EBE3
:10195000500041EA00412C20005D41EA00600C4942
:10196000091F086001200B490866FFF7F7FB0546D1
:1019700006E0FFF7F3FB401B022801D903200DE628
:10198000034808380068C0F340600028F1D03FE009
:101990000838024000004742800E47420070004075
:1019A00000201C490866FFF7D9FB054606E0FFF753
:1019B000D5FB401B022801D90320EFE5164800683B
:1019C000C0F340600028F2D122E0A069012800D1D4
:1019D000E4E51148001D066806F48001E0698142D3
:1019E00014D106F03F01206A81420FD147F6C07042
:1019F0003040616A884209D106F44031A06A8142D0
:101A000004D106F07061E06A814201D00120C5E591
:101A10000020C3E5000047420038024070B504468C
:101A20002546681EB0F1807F01D301200FE0681EBB
:101A30004FF0E02148610F214FF0FF3001F0D2FD5F
:101A400000204FF0E021886107200861002070BD70
:101A5000704700002DE9F0470446206805682068BB
:101A6000C668206847694FF00008C14605F00F08B6
:101A7000B8F1000F0AD105F0200038B106F02000BF
:101A800020B1204601F0DAFABDE8F087B8F1000F86
:101A900072D007F0010018B906F4907000286BD0DE
:101AA00005F0010030B106F4807018B1E06B40F031
:101AB0000100E06305F0040030B107F0010018B147
:101AC000E06B40F00200E06305F0020030B107F087
:101AD000010018B1E06B40F00400E06305F008007D
:101AE00048B106F0200010B907F0010018B1E06B12
:101AF00040F00800E063E06B70B305F0200028B10F
:101B000006F0200010B1204601F098FA20684069E4
:101B1000C0F38019E06B00F0080010B9B9F1000FB4
:101B200023D0204601F06AFA2068406900F04000A6
:101B3000402816D12068406920F0400021684861A3
:101B4000606B50B11748616B0865606BFFF7D0F9A7
:101B500010B1606B016D88470CE02046FFF778FFFD
:101B600008E02046FFF774FF04E02046FFF770FF0F
:101B70000020E06388E7FFE705F0800030B106F061
:101B8000800018B1204601F0A1FC7DE705F040007F
:101B900030B106F0400018B1204601F03FFA73E77B
:101BA00000BF71E7E92F000810B504460CB9012009
:101BB00010BDA06900B100E000BF94F8390028B959
:101BC000002084F83800204600F028F8242084F80B
:101BD00039002068C06820F400502168C8602046A1
:101BE00001F080FA2068006920F4904021680861C3
:101BF0002068406920F02A00216848612068C06898
:101C000040F400502168C8600020E063202084F880
:101C1000390084F83A000020CAE7000010B586B009
:101C20000446142101A8FEF703FB1F4920688842DF
:101C300038D100BF002000901C48006840F0100020
:101C40001A4908600846006800F01000009000BFC4
:101C500000BF00BF0020009014481438006840F016
:101C600001001249143908600846006800F00100BC
:101C7000009000BF00BF4FF4C060019002200290AE
:101C800000200390032004900720059001A9084834
:101C9000FFF756F9002201212520FFF7E9FA252058
:101CA000FFF7D6FA06B010BD0010014044380240DC
:101CB0000000024010B5034693F83A0020282FD1C7
:101CC00001B10AB9012010BD00BF93F83800012806
:101CD00001D10220F7E7012083F8380000BF9962A4
:101CE0009A85DA850020D863222083F83A0000BF65
:101CF000002083F8380000BF1868C06840F4807086
:101D00001C68E0601868406940F001001C68606170
:101D10001868C06840F020001C68E0600020D2E72E
:101D20000220D0E710B504462049206888423BD104
:101D30001F48008800F4004088BB1D48008800F45C
:101D4000804070B11B4800780A2803D00020184951
:101D5000088024E01648008840F4004014490880B8
:101D60001DE0144800780D2806D11148008840F481
:101D700080400F49088012E00E4800780C4909881D
:101D8000C1F30D010C4A505409480088401C084911
:101D9000088008460088C72801DD0020088001224D
:101DA00004490648FFF786FF10BD000000100140FF
:101DB000580000205A000020B800002080010020B8
:101DC0002DE9F84304460D4616461F464FF000091C
:101DD00094F8390020285DD105B116B90120BDE87D
:101DE000F88300BF94F83800012801D10220F6E7FB
:101DF000012084F8380000BF0020E063212084F82F
:101E00003900FFF7ABF98146A684E68400BF0020C5
:101E100084F8380000BF2BE0E08C401EE084A0680E
:101E2000B0F5805F16D14B460022802120460097F6
:101E300001F080FB08B10320D1E7A846B8F8000004
:101E4000C0F3080021684860206908B9AD1C0FE0A4
:101E50006D1C0DE04B46002280212046009701F0CA
:101E600069FB08B10320BAE715F8010B2168486047
:101E7000E08C0028D0D14B4600224021204600971C
:101E800001F058FB08B10320A9E7202084F83900AD
:101E90000020A4E70220A2E7704700BFFEE7000091
:101EA0002DE9F0418AB000270024002500264FF0DC
:101EB000010860E000F046FF04460D2C20D2DFE868
:101EC00004F007090B0D0F11131517191F1B1D0027
:101ED000002417E0012415E0022413E0032411E09C
:101EE00004240FE005240DE006240BE0072409E09C
:101EF000082407E0092405E00B2403E00C2401E09A
:101F0000002400BF00BF5CB1062D09DA002C07DBFE
:101F1000092C05DC4DF825401AA001F04BFB6D1C87
:101F20000B2C03D16D1E18A001F044FB0C2C1AD110
:101F300000276D1C002608E05DF82600134931F8E3
:101F40001610884200D00127761C062EF4DB1FB93C
:101F50000FA001F02FFB11E016A001F02BFB1AA03F
:101F600001F028FB0025072D00DB14B94FF0010814
:101F700001E04FF00008B8F1000F9BD100BF0AB09C
:101F8000BDE8F0812A0000000800000040000020A9
:101F90000D0A20436F6E67726174756C6174696FAE
:101FA0006E732120496E70757420436F7272656381
:101FB000740D0A000D0A20496E7075742045727206
:101FC0006F720D0A000000000D0A20506C656173ED
:101FD0006520496E70757420436F646520416761A8
:101FE000696E3A0D0A00000010B50446002C36DB7D
:101FF00006DB092C04DC214619A001F0DBFA2EE0F7
:102000000A2C08D11CA001F0D5FA20A001F0D2FAC8
:10201000FFF746FF23E00B2C03D125A001F0CAFAFD
:102020001DE00C2C03D126A001F0C4FA17E00D2C02
:1020300008D127A001F0BEFA2AA001F0BBFA00F0F7
:102040002BFE0CE00E2C05D12FA001F0B3FA00F00E
:1020500037FF04E00F2C02D132A001F0ABFA10BD23
:102060006B657920256420626520707265737365E5
:1020700064200D0A00000000436F646520496E7003
:102080007574204B65790D0A00000000506C656185
:10209000736520496E70757420596F75722053698D
:1020A00078204269747320436F64650D0A00000054
:1020B000436F6E6669726D204B65790D0A000000F2
:1020C00044656C657465204B65790D0A000000005D
:1020D000526573657420436F6465204B65790D0A02
:1020E00000000000506C6561736520526573657473
:1020F00020596F75722053697820426974732043A8
:102100006F64650D0A000000546578742043686FA1
:102110006F73696E6720426567696E204B65790D44
:102120000A000000546578742043686F6F73696E0D
:10213000672065787469204B65790D0A00000000FE
:102140002DE9F04104460D4616461F462A2000F0B0
:102150004BFCA11C88B200F037FCB11C88B200F027
:1021600033FC2B2000F040FC691C88B200F02CFCF2
:10217000791C88B200F028FC2C2000F035FCBDE86A
:10218000F08170B504460D4616462B462246294678
:102190002046FFF7D5FF304600F016FC70BD2DE954
:1021A000F04706460F4614461D46DDF820A0681E7F
:1021B00083B2601E82B239463046FFF7C1FFB8468F
:1021C0000EE0B14606E0504600F0FEFB09F10100CA
:1021D0001FFA80F9A145F6DB08F101001FFA80F82B
:1021E000A845EEDBBDE8F08710B500224FF4806112
:1021F0007B48FEF7ADFF6420FEF78EFE01229102C0
:102200007748FEF7A5FF6420FEF786FE0122510302
:102210007348FEF79DFF6420FEF77EFE112000F05C
:10222000E3FB7820FEF778FEB12000F0DDFB05200F
:1022300000F0D3FB3C2000F0D0FB3C2000F0CDFBB5
:10224000B22000F0D1FB052000F0C7FB3C2000F0DD
:10225000C4FB3C2000F0C1FBB32000F0C5FB05200F
:1022600000F0BBFB3C2000F0B8FB3C2000F0B5FBCD
:10227000052000F0B2FB3C2000F0AFFB3C2000F05A
:10228000ACFBB42000F0B0FB032000F0A6FBC020A4
:1022900000F0AAFB282000F0A0FB082000F09DFB26
:1022A000042000F09AFBC12000F09EFBC02000F04B
:1022B00094FBC22000F098FB0D2000F08EFB002064
:1022C00000F08BFBC32000F08FFB8D2000F085FB1E
:1022D0002A2000F082FBC42000F086FB8D2000F055
:1022E0007CFBEE2000F079FBC52000F07DFB1A207E
:1022F00000F073FB362000F077FBC02000F06DFB90
:10230000E02000F071FB042000F067FB222000F0C9
:1023100064FB072000F061FB0A2000F05EFB2E202A
:1023200000F05BFB302000F058FB252000F055FB4F
:102330002A2000F052FB282000F04FFB262000F05E
:102340004CFB2E2000F049FB3A2000F046FB002019
:1023500000F043FB012000F040FB032000F03DFBB8
:10236000132000F03AFBE12000F03EFB042000F0D7
:1023700034FB162000F031FB062000F02EFB0D2070
:1023800000F02BFB2D2000F028FB262000F025FB81
:10239000232000F022FB272000F01FFB272000F065
:1023A0001CFB252000F019FB2D2000F016FB3B2024
:1023B00000F013FB002000F010FB012000F00DFBEB
:1023C000042000F00AFB132000F007FB3A2000F085
:1023D0000BFB052000F001FB292000F005FB10BDE0
:1023E000000C02402DE9FF4F83B005468A46174690
:1023F000119CAB46204604EBD071C1F34706304632
:10240000F11706EB5171C910614389B20191A7F12F
:102410002000C7B20AEB0400401E83B2A819401E78
:1024200082B251462846FFF78BFE4FF000094AE082
:10243000102C06D1264800EB071010F80900029076
:102440000BE0202C06D1234800EB871010F8090080
:10245000029002E007B0BDE8F08F4FF000082AE0DC
:10246000129868B9012000FA08F00299084018B1E2
:10247000069800F0A9FA1AE0109800F0A5FA16E004
:10248000012000FA08F00299084020B15146284680
:10249000069AFFF776FE681C85B2A5EB0B00B042EA
:1024A00005D15D460AF101001FFA80FA06E008F145
:1024B000010000F0FF08B8F1080FD1DB00BF09F1FF
:1024C00001001FFA80F901988145B1DB00BFC1E727
:1024D000A63A0008964000082DE9FE4F804689463E
:1024E00015469A46DDE90D470C9E2AE0102C09D1CD
:1024F00053462A4649464046CDE90147009600F03A
:1025000025F819E0182C09D153462A464946404679
:10251000CDE90147009600F0ABF80DE0202C09D181
:1025200053462A4649464046CDE90147009600F009
:1025300029F901E0BDE8FE8FAD1C08EB04001FFA8D
:1025400080F828780028D1D100BFF3E72DE9FF4FAC
:1025500083B005460F469346119CAA462046E117D4
:1025600004EB5171C910614389B201910D200290B1
:10257000002674E006EB06103C4911F810009BF8A9
:102580000010884268D106EB0610384901EB400084
:1025900040789BF8011088425ED13819401E83B202
:1025A0002819401E82B239462846FFF7C9FD4FF070
:1025B00000084EE04FF0000943E0129808BB06EB1C
:1025C00006102A4901EB4000801C10F80800802109
:1025D00041FA09F1084028B139462846069AFFF722
:1025E000D0FD04E039462846109AFFF7CAFD681C62
:1025F00085B2A5EB0A00A0421FD15546781C87B2D0
:1026000022E006EB0610194901EB4000801C10F88F
:102610000800012101FA09F1084020B13946284695
:10262000069AFFF7AEFD681C85B2A5EB0A00A04232
:1026300003D15546781C87B206E009F1010000F08D
:10264000FF09B9F1080FB8DB00BF08F1010000F085
:10265000FF0801988045ADDB00BF701C86B2029870
:10266000864287DB07B0BDE8F08F000056580008AF
:102670002DE9FE4F0646894692469B460D9C0096E4
:102680002046E11704EB5171C910614389B20191F1
:102690000520029000256DE005EB850000EB45105C
:1026A000374911F810009AF8001088425FD105EB05
:1026B000850000EB4510324901EB400040789AF864
:1026C0000110884253D109EB0400401E83B2301937
:1026D000401E82B249463046FFF732FD002743E0F4
:1026E0004FF000083AE00E98A8B905EB850000EB22
:1026F0004510234901EB4000801CC05D012101FA17
:1027000008F1084018B1584600F05EF922E00C9834
:1027100000F05AF91EE005EB850000EB4510184962
:1027200001EB4000801CC05D012101FA08F1084066
:1027300020B15A4649463046FFF723FD701C86B249
:102740000098301AA04205D1009E09F101001FFA3D
:1027500080F906E008F1010000F0FF08B8F1080F69
:10276000C1DB00BF781CC7B201988742B8DB00BF4D
:10277000681C85B2029885428EDBBDE8FE8F0000A2
:10278000105A00082DE9FE4F0646894692469B46A0
:102790000D9C00962046E11704EB5171C91061436E
:1027A00089B2019105200290002565E005EB8510B6
:1027B000344911F810009AF80010884259D105EBFD
:1027C0008510304901EB400040789AF801108842AA
:1027D0004FD109EB0400401E83B23019401E82B273
:1027E00049463046FFF7ACFC00273FE04FF00008B9
:1027F00036E00E9898B905EB8510224901EB4000B0
:10280000801CC05D012101FA08F1084018B158464A
:1028100000F0DAF820E00C9800F0D6F81CE005EBA8
:102820008510184901EB4000801CC05D012101FAB0
:1028300008F1084020B15A4649463046FFF7A1FC4E
:10284000701C86B20098301AA04205D1009E09F192
:1028500001001FFA80F906E008F1010000F0FF080E
:10286000B8F1080FC5DB00BF781CC7B201988742DA
:10287000BCDB00BF681C85B20298854296DBBDE8D0
:10288000FE8F0000825B00082DE9FF4F85B00746F0
:1028900091461D46DDE913A600200490304606EB64
:1028A000D071C1F3470B002434E0281B401EC1B295
:1028B0000A2001F0ADF8B9FBF0F00A21B0FBF1F20B
:1028C00001FB12080498A0B9681EA04211DDB8F1FE
:1028D000000F0CD1002004FB0B71CDE900A6029083
:1028E00088B22022129B0699FFF77CFD10E00120A0
:1028F0000490002008F13001CAB204FB0B71CDE94D
:1029000000A6029088B2129B0699FFF76BFD00BFEC
:10291000601CC4B2AC42C8DB09B0BDE8F08F2DE941
:10292000F05F0746884615461E46DDF828900024CD
:1029300008EB0600401E83B27819401E82B2414661
:102940003846FFF7FDFBA24619E04FF0000B10E000
:1029500019F8140000F041F8012101EB440119F8C5
:10296000010000F03AF8601C84B20BF101001FFA7C
:1029700080FBB345ECDB0AF101001FFA80FAAA459F
:10298000E3DBBDE8F09F2DE9FE4F06460F461446F7
:102990009846DDE90D5ADDF8309010E0CDE9015A96
:1029A000CDF800902278434639463046FFF71AFDAD
:1029B000284605EBD07106EB61018EB2641C2078CD
:1029C0000028EBD1BDE8FE8F10B50446201200F0C0
:1029D0001FF8E0B200F01CF810BD10B50446204608
:1029E00000F016F810BD000010B5044600224FF4A8
:1029F00000610648FEF7ACFB204600F009F8012212
:102A0000D1020248FEF7A4FB10BD0000000C0240FA
:102A100070B5044600224FF480511548FEF798FB2C
:102A200000251DE000224FF480711148FEF790FB55
:102A300004F0800028B1012251020D48FEF788FB06
:102A400005E000224FF400710948FEF781FB0122E6
:102A500011020748FEF77CFB6006040E681CC5B235
:102A6000082DDFDB012211030148FEF771FB70BD69
:102A7000000C02401FB500200090019002900390CE
:102A80001548164908604FF480304860002113480B
:102A900081600161017680F82010C1621049816275
:102AA0000021C1600121C161002180F830100121A5
:102AB0004161FEF79FF908B1FDF735FF0320009053
:102AC000012001900020029069460448FDF72EFF86
:102AD00008B1FDF728FF1FBD002001407000002055
:102AE0000100000F00B587B0142102A8FDF7A0FB7C
:102AF00000BF002001905448006840F00400524993
:102B000008600846006800F00400019000BF00BFA4
:102B100000BF002001900846006840F08000086077
:102B20000846006800F08000019000BF00BF00BFB1
:102B3000002001900846006840F040000860084608
:102B4000006800F04000019000BF00BF00BF0020FF
:102B500001900846006840F00100086008460068DF
:102B600000F00100019000BF00BF00BF00200190F5
:102B70000846006840F0100008600846006800F051
:102B80001000019000BF00BF00BF00200190084668
:102B9000006840F0020008600846006800F002008B
:102BA000019000BF00BF00BF0020019008460068F0
:102BB00040F0080008600846006800F00800019036
:102BC00000BF00BF00224FF440612048FEF7C0FA6A
:102BD00000224FF440511D48FEF7BAFA00224FF48C
:102BE00070711B48FEF7B4FA4FF440600290012068
:102BF000039004900020059002A91448FEF7A0F964
:102C00004FF4405002900120039004900020059062
:102C100002A90E48FEF794F94FF47070029001205B
:102C2000039000200490059002A90948FEF788F956
:102C300078200290002003900220049002A9054809
:102C4000FEF77EF907B000BD30380240000C0240AC
:102C5000000402400010024010B50B480B49086008
:102C60004FF4E1304860002108488160C160016193
:102C70000C21416100218161C161FEF795FF08B11E
:102C8000FDF751FE10BD0000001001408001002042
:102C900000BFFEE77047704710B500200349088069
:102CA000012203490348FFF705F810BD5800002032
:102CB0005A0000208001002000B587B000BF00202E
:102CC00001901D48006840F008001B490860084654
:102CD000006800F00800019000BF00BF00BF0020A6
:102CE00001900846006840F0080008600846006847
:102CF00000F00800019000BF00BF8815029001207D
:102D000003900320059002A90C48FEF719F901224F
:102D100011020A48FEF71CFA4FF4007002900120DD
:102D2000039002A90548FEF70BF90122510203485E
:102D3000FEF70EFA07B000BD30380240000C02402A
:102D4000704700002DE9F0414FF0FF3700260025C5
:102D5000002400BF3CE0002537E0AE420AD11F4A04
:102D600002EBC50291881D4A52F835000122FEF798
:102D7000EFF909E0194A02EBC5029188174A52F8A7
:102D800035000022FEF7E4F900241BE0144A02EBB0
:102D9000C4029188124A52F83400FEF7D1F9002893
:102DA0000FDDC820FEF7B8F80D4A02EBC402918887
:102DB0000B4A52F83400FEF7C3F9002801DD06EB98
:102DC0008407641C042CE1D36D1C042DC5D3761C30
:102DD000052EC0DB3846BDE8F08100000000002071
:102DE0002000002010B5FEF7BFF910BD00B593B06C
:102DF000302107A8FDF71CFA142102A8FDF718FAE4
:102E000000BF002001902548006840F08050234911
:102E100008600846006800F08050019000BF00BFC5
:102E200000BF002001901E48006840F480401C490B
:102E300008600846006800F48040019000BF00BFB1
:102E40000220079001200A9010200B9002200D9084
:102E500000210E9108210F91A821109102211191BA
:102E60000421129107A8FEF795FB08B1FDF75BFD61
:102E70000F20029002200390002004904FF4A050F5
:102E800005904FF480500690052102A8FEF742FA03
:102E900008B1FDF748FD13B000BD00004038024006
:102EA000007000400548006840F470000349086065
:102EB0004FF00060014980390860704788ED00E0FC
:102EC00038B58BE0FFF73EFF0446012C06D0022CFC
:102ED00006D0032C06D00F2C08D105E0032407E010
:102EE000012405E0022403E00F2401E0002400BFD8
:102EF00000BF032C1AD14FF6E0703A231222322180
:102F000000900A20FFF74BF94FF6E0704E23122293
:102F1000462100900A20FFF742F9324808231A465A
:102F20001E2100900A20FFF7FAFC57E0012C1AD16D
:102F30004FF6E0704E231222462100900A20FFF740
:102F40002EF94FF6E070262312221E2100900A204F
:102F5000FFF725F9234808231A46322100900A205A
:102F6000FFF7DDFC3AE0022C1AD14FF6E0703A236D
:102F70001222322100900A20FFF711F94FF6E0707B
:102F8000262312221E2100900A20FFF708F9154877
:102F900008231A46462100900A20FFF7C0FC1DE0D6
:102FA0000F2C1BD100254FF6E0703A23122232215C
:102FB00000900A20FFF7F3F84FF6E0702623122264
:102FC0001E2100900A20FFF7EAF84FF6E0704E232A
:102FD0001222462100900A20FFF7E1F8002D7FF42D
:102FE00071AF38BD263A000870B50546AC6B0020BD
:102FF000E085E0842046FEF72BFD70BD0168C968BE
:1030000021F490710268D1600168496921F00101E1
:1030100002685161202180F83A10704710B50446CB
:103020002068C06820F040002168C860202084F833
:1030300039002046FEF730FF002010BD70B5044671
:1030400094F83A0022284AD1A068B0F5805F13D1E5
:10305000A56A206940B920684068C0F3080028804C
:10306000A06A801CA06219E020684068C0B2288075
:10307000A06A401CA06211E0206938B9206840684D
:10308000C1B2A26A501CA062117007E020684068BB
:1030900000F07F01A26A501CA0621170E08D401EFA
:1030A00080B2E085C8B92068C06820F0200021689F
:1030B000C8602068C06820F480702168C8602068FB
:1030C000406920F0010021684861202084F83A001E
:1030D0002046FEF727FE002070BD0020FCE70220FE
:1030E000FAE700002DE9F84F04462068006920F453
:1030F0004050E1680843216808612169A0680843DD
:1031000061690843E169084300902068C06849F29A
:103110000C618843009908432168C86020684069B1
:1031200020F44070A169084321684861E069B0F566
:10313000004F75D1E3492068884203D0E2492068F6
:1031400088426FD1FEF7BEF9814602206168A0FB7C
:1031500001510B461920A9FB00712A463846FDF79C
:103160002FF86421B0FBF1F04FEA001A02206168E9
:10317000A0FB01510B461920A9FB00712A463846D5
:10318000FDF71EF8074602206168A0FB01510B46BF
:103190001920A9FB00B12A465846FDF711F8642111
:1031A000B0FBF1F000EBC00101EB0010A7EB8000D9
:1031B000322101EBC0006421B0FBF1F000F0F80017
:1031C0000AEB400A02206168A0FB01510B4619205E
:1031D000A9FB00712A463846FCF7F2FF0746022099
:1031E0006168A0FB01510B461920A9FB00B12A46DA
:1031F0005846FCF7E5FF6421B0FBF1F000EBC0019D
:1032000001EB0010A7EB8000322101EBC00064212C
:10321000B0FBF1F000F007005044216888604FE1F6
:103220006EE0FFE7FEF73EF9814602206168A0FBF1
:1032300001510B461920A9FB00712A463846FCF7BC
:10324000BFFF6421B0FBF1F04FEA001A0220616871
:10325000A0FB01510B461920A9FB00712A463846F4
:10326000FCF7AEFF074602206168A0FB01510B4648
:103270001920A9FB00B12A465846FCF7A1FF64219A
:10328000B0FBF1F000EBC00101EB0010A7EB8000F8
:10329000322101EBC0006421B0FBF1F000F0F80036
:1032A0000AEB400A02206168A0FB01510B4619207D
:1032B000A9FB00712A463846FCF782FF0746022028
:1032C0006168A0FB015003461920A9FB00B12A4602
:1032D0005846FCF775FF6421B0FBF1F000EBC0012C
:1032E00001EB0010A7EB8000322101EBC00064214C
:1032F000B0FBF1F000F00700504421688860DFE087
:1033000070492068884203D06F49206888426BD199
:10331000FEF7D8F8814604206168A0FB01510B46F6
:103320001920A9FB00712A463846FCF749FF82465E
:1033300004206168A0FB01510B461920A9FB007114
:103340002A463846FCF73CFF6421B0FBF1F000EB65
:10335000C00101EB0010AAEB8000322101EB00104C
:103360006421B0FBF1F000F0F00A04206168A0FBDA
:10337000015003461920A9FB00712A463846FCF784
:103380001FFF6421B0FBF1F00AEB001A0420616812
:10339000A0FB01510B461920A9FB00712A463846B3
:1033A000FCF70EFF074604206168A0FB01500346AE
:1033B0001920A9FB00B12A465846FCF701FF6421F9
:1033C000B0FBF1F000EBC00101EB0010A7EB8000B7
:1033D000322101EB00106421B0FBF1F000F00F008E
:1033E0005044216888606BE0FEF75CF88146042059
:1033F0006168A0FB015003461920A9FB00712A4611
:103400003846FCF7DDFE824604206168A0FB0150CF
:1034100003461920A9FB00712A463846FCF7D0FE66
:103420006421B0FBF1F000EBC00101EB0010AAEB4E
:103430008000322101EB00106421B0FBF1F000F0BC
:10344000F00A04206168A0FB015003461920A9FB83
:1034500000712A463846FCF7B3FE6421B0FBF1F058
:103460000AEB001A04206168A0FB017003461920D2
:10347000A9FB005001463A462846FCF7A1FE074644
:1034800004206168A0FB015003461920A9FB00B18C
:103490002A465846FCF794FE6421B0FBF1F000EB9D
:1034A000C00101EB0010A7EB8000322101EB0010FE
:1034B0006421B0FBF1F000F00F00504421688860F7
:1034C000BDE8F88F0010014000140140014691F85A
:1034D000390021282CD18868B0F5805F0FD10A6AA5
:1034E0001088C0F308000B685860086918B9086AAA
:1034F000801C086209E0086A401C086205E00B6A4B
:10350000581C086218780B685860C88C401E80B23E
:10351000C88458B90868C06820F080000B68D8607B
:103520000868C06840F040000B68D8600020704711
:103530000220FCE72DE9F04104460D461746984667
:10354000069E21E0701CF8B12EB1FDF707FEA0EB3E
:103550000800B04218D92068C06820F4D0702168F3
:10356000C8602068406920F001002168486120207F
:1035700084F8390084F83A0000BF002084F838004D
:1035800000BF0320BDE8F081206800682840A84201
:1035900001D1012000E00020B842D3D00020F1E7A3
:1035A00010B50248FEF756FA10BD00008001002059
:1035B00000BFFEE70FB4054B10B503A9044A0298FB
:1035C00000F034F810BC5DF814FB000081370008EF
:1035D0006C00002002480068C0F302207047000021
:1035E0000CED00E010B5002804DB0A07130E054AB5
:1035F000135406E00A07140E034A00F00F031B1FC2
:10360000D45410BD00E400E018ED00E002E008C86A
:10361000121F08C1002AFAD170477047002001E04C
:1036200001C1121F002AFBD1704700002DE9FF4F96
:1036300089B09B460446002506E025280BD05A4653
:103640000B999047641C6D1C20780028F5D10DB0B3
:103650002846BDE8F08F0027B8460122474900E020
:10366000074314F8013F203B02FA03F00842F7D168
:1036700020782E2819D114F8010F47F004072A28C2
:103680000ED06FF02F022078A0F1300109290CD85C
:1036900008EB880102EB410100EB0108641CF2E732
:1036A0000A98641C50F8048B0A9020780028CED029
:1036B000642808D0692806D075281ED05A460B9970
:1036C00090476D1C58E00A994FF00A0901C90A9108
:1036D000002802DA40422D2102E0390504D52B21D1
:1036E0008DF82010012103E0F90704D02021F7E72D
:1036F0008A4608AE0DE00021FAE70A994FF00A0960
:1037000001C90A91F7E74946FCF765FF303106F831
:10371000011D0028F7D1ADEB060000F12009780764
:1037200001D44FF00108C84502DDA8EB090000E014
:1037300000208046002706E008A85A46C05D0B9985
:1037400090476D1C7F1C5745F6DB04E030205A463D
:103750000B9990476D1CB8F10001A8F10108F5DC48
:1037600005E016F8010B5A460B9990476D1CB9F10C
:103770000001A9F10109F4DC641C65E709280100D6
:1037800013B50C464FF6FF73012269460248FEF757
:1037900017FB00981CBD0000800100200EB500251D
:1037A000FDF7EEFCFFF722FBFFF79CF9FFF784FA29
:1037B000FFF752FAFFF75EF9FEF716FD00205649B3
:1037C0000880012255495648FEF774FA55A0FFF7C4
:1037D000F1FE5DA0FFF7EEFE61A0FFF7EBFE67A034
:1037E000FFF7E8FE6BA0FFF7E5FE71A0FFF7E2FE32
:1037F0004CA0FFF7DFFE4FF6E070A02380220021EF
:1038000000900846FEF7CBFC002010214FF6E07236
:103810000346CDE9002102906BA21E211920FEF77C
:103820005BFE002010214FF6E0720346CDE9002137
:10383000029068A21E215A20FFF7A5F8002010214F
:103840004FF6E0720346CDE9002102905EA23221DC
:103850001920FEF741FE002010214FF6E0720346CA
:10386000CDE9002102905DA232215A20FFF78BF8AA
:10387000002010214FF6E0720346CDE900210290AE
:1038800051A246211920FEF727FE002010214FF6F5
:10389000E0720346CDE90021029052A246215A204F
:1038A000FFF771F836E0FFF74DFA05462846FEF7B8
:1038B0009BFB1948008800F4004000282AD04B48A0
:1038C000007830384A490880484840783038488085
:1038D00046488078303888804448C0783038C8807E
:1038E0004248007930380881404840793038488172
:1038F00040A0FFF75FFE002406E03D4830F81410BA
:1039000042A0FFF757FE641C062CF6DB002002499C
:10391000088000BFC7E70000580000205A000020C0
:10392000800100202F2A2A2A2A2A2A2A2A2A2A2AF9
:103930002A2A2A2A2A2A2A2A2A2A2A2A2A2A2A2AE7
:103940002A2A2A2A2A0D0A00B5E7D7D3CFB5CDB344
:10395000C9E8BCC6D3EBB7D6CEF60D0A000000000E
:10396000CAB5D1E9CBC4A3BACDA8D0C5BDD3BFDAFF
:10397000D3A6D3C3C9E8BCC60D0A0000B0E0BCB6EC
:10398000A3BAD0C5CFA2B9A4B3CC313930310D0A16
:1039900000000000D7F7D5DFA3BAC1F5C9D0D3EE38
:1039A000313934313930303132300D0A0000000005
:1039B000C8D5C6DAA3BA32303231C4EA36D4C239F5
:1039C000C8D50D0A00000000D0C5CFA2B9A4B3CC61
:1039D0000000000031393031000000003139303250
:1039E000000000003139303300000000B800002032
:1039F00040000020C3DCC2EBD2D1B3C9B9A6D0DEEF
:103A0000B8C4CEAAA3BA0D0A0000000025640000C5
:103A100010B50246012000E050430B1EA1F1010445
:103A2000E1B2F9D110BD000000000000000000006C
:103A30000000000000000000000000000000000086
:103A40000000000000000000000000000000000076
:103A50000000000000000000000000000000000066
:103A60000000000000000000000000000000000056
:103A70000000000000000000000000000000000046
:103A80000000000000000000000000000000000036
:103A90000000000000000000000000000000000026
:103AA0000000000000000000000000000000000016
:103AB00000000000000000000008080808080808CE
:103AC00000001818000000486C24120000000000DC
:103AD0000000000000000000002424247F121212C5
:103AE0007F12121200000000081C2A2A0A0C182853
:103AF000282A2A1C080800000022251515152A5816
:103B00005454542200000000000C1212120A7625B0
:103B10002911916E00000006060403000000000059
:103B200000000000000000402010100808080808ED
:103B30000810102040000002040808101010101097
:103B40001008080402000000000008086B1C1C6B31
:103B500008080000000000000000080808087F08AE
:103B6000080808000000000000000000000000003D
:103B70000000060604030000000000000000FE0034
:103B80000000000000000000000000000000000035
:103B900000000606000000008040402020101008B1
:103BA000080404020200000000182442424242427B
:103BB000424224180000000000080E080808080807
:103BC0000808083E00000000003C4242422020104D
:103BD0000804427E00000000003C424220182040C1
:103BE0004042221C00000000002030282424222211
:103BF0007E20207800000000007E0202021A26408B
:103C00004042221C0000000000382402021A264212
:103C10004242241800000000007E222210100808F2
:103C20000808080800000000003C42424224182412
:103C30004242423C000000000018244242426458C4
:103C40004040241C00000000000000001818000084
:103C5000000018180000000000000000000800002C
:103C600000000008080400000040201008040204BE
:103C70000810204000000000000000007F0000004D
:103C80007F00000000000000000204081020402017
:103C90001008040200000000003C42424640201090
:103CA0001000181800000000001C225A55555555E8
:103CB0002D42221C00000000000808181414243CA7
:103CC000224242E700000000001F2222221E224260
:103CD0004242221F00000000007C4242010101011B
:103CE0000142221C00000000001F224242424242C8
:103CF0004242221F00000000003F4212121E121218
:103D00000242423F00000000003F4212121E121207
:103D10000202020700000000003C222201010171A2
:103D20002122221C0000000000E7424242427E4263
:103D3000424242E700000000003E08080808080868
:103D40000808083E00000000007C10101010101041
:103D500010101010110F0000007722120A0E0A1224
:103D60001222227700000000000702020202020273
:103D70000202427F000000000077363636362A2ADB
:103D80002A2A2A6B0000000000E346464A4A5252A3
:103D90005262624700000000001C22414141414143
:103DA0004141221C00000000003F424242423E02CC
:103DB0000202020700000000001C22414141414173
:103DC0004D53321C60000000003F4242423E12123E
:103DD000222242C700000000007C42420204182058
:103DE0004042423E00000000007F490808080808E1
:103DF0000808081C0000000000E74242424242421C
:103E00004242423C0000000000E7424222242414C7
:103E10001418080800000000006B4949494955552D
:103E2000362222220000000000E74224241818183D
:103E3000242442E70000000000772222141408081E
:103E40000808081C00000000007E21201010080453
:103E50000442423F000000780808080808080808E3
:103E60000808080878000000020204040808081086
:103E7000102020204040001E1010101010101010B4
:103E8000101010101E000038440000000000000058
:103E90000000000000000000000000000000000022
:103EA0000000000000FF0006080000000000000005
:103EB000000000000000000000000000003C42780C
:103EC000444242FC0000000000030202021A2642A3
:103ED0004242261A000000000000000000384402A0
:103EE0000202443800000000006040404078444234
:103EF000424264D80000000000000000003C427E06
:103F00000202423C0000000000F08808087E080819
:103F10000808083E0000000000000000007C22228B
:103F20001C023C42423C000000030202023A4642AC
:103F3000424242E700000000000C0C00000E08089E
:103F40000808083E00000000003030000038202043
:103F500020202020221E0000000302020272120A0A
:103F60001612227700000000000E08080808080852
:103F70000808083E0000000000000000007F929248
:103F8000929292B70000000000000000003B464201
:103F9000424242E70000000000000000003C4242B4
:103FA0004242423C0000000000000000001B26428C
:103FB0004242221E02070000000000000078444236
:103FC0004242447840E000000000000000774C04CA
:103FD0000404041F0000000000000000007C4202F6
:103FE0003C40423E0000000000000008083E080877
:103FF0000808083000000000000000000063424292
:10400000424262DC000000000000000000E74224A1
:1040100024140808000000000000000000EB4949DB
:1040200055552222000000000000000000762418F0
:104030001818246E000000000000000000E7422471
:10404000241418080807000000000000007E221059
:104050000808447E000000C02020202020102020DE
:1040600020202020C0001010101010101010101070
:104070001010101010100006080808080810080892
:104080000808080806000C32C2000000000000000A
:104090000000000000000000000000000000000020
:1040A0000000000000000000000000000000000010
:1040B0000000000000000000000000000000000000
:1040C00000000000000000000000000000000000F0
:1040D00000000000000000000000000000000000E0
:1040E000C001C001C001C001C001C001C001800009
:1040F00080008000800080008000800000000000C0
:10410000000000008001C003C00380010000000027
:10411000000000000000000000000000E01CE01CA7
:10412000F01E700E3807180308018400000000001C
:10413000000000000000000000000000000000007F
:10414000000000000000000000000000000000006F
:10415000000000000000000000000000000000005F
:10416000000020102010201020102010FE7FFE7F65
:104170001008100810081008100810081008FE7F1A
:10418000FE7F080408040804080408040000000076
:10419000000000000000000000000000000000011E
:1041A0000001C00760191031183118391839380169
:1041B0007001E001C0038007000F001D00390031CD
:1041C0001C311C310C310C11180DE00700010001ED
:1041D00000010000000000000000000000000000DE
:1041E00000001C1036186308630C63046304630248
:1041F00063026301361D9C37802280634063406305
:1042000020632063306310221836081C0000000071
:10421000000000000000000000000000000000009E
:104220000000F00098018C018C018C018C018C0045
:10423000CC007800183E1C0836083208630463047A
:10424000C304C303834306438E26781C000000008A
:104250000000000000000000000000001C003C0006
:104260003C003000300010000C0006000000000090
:10427000000000000000000000000000000000003E
:10428000000000000000000000000000000000002E
:1042900000000000000000000000000000400020BE
:1042A00000100008000C00040006000300030003D7
:1042B00080018001800180018001800180018001F6
:1042C00000030003000300060006000C00080010B5
:1042D0000020004000000000000000000200040078
:1042E00008001000300020006000C000C000C000C6
:1042F00080018001800180018001800180018001B6
:10430000C000C000C0006000600030001000080065
:104310000400020000000000000000000000000097
:1043200000000000000000018003800300011C71F8
:104330003C79783DC0070001C007783D3C791C718D
:1043400000018003800380010000000000000000E5
:10435000000000000000000000000000000000005D
:104360000000000000000000000100010001000149
:10437000000100010001FC7F0001000100010001BB
:10438000000100010001000000000000000000002A
:10439000000000000000000000000000000000001D
:1043A000000000000000000000000000000000000D
:1043B00000000000000000000000000000000000FD
:1043C0000000000000001C003C003C0030003000F9
:1043D00010000C00060000000000000000000000BB
:1043E00000000000000000000000000000000000CD
:1043F000000000000000FE7F000000000000000040
:1044000000000000000000000000000000000000AC
:10441000000000000000000000000000000000009C
:10442000000000000000000000000000000000008C
:10443000000000000000000000000000000000007C
:104440000000000018003C003C00180000000000C4
:1044500000000000000000000000000000400060BC
:1044600000200030001000180008000C00040006B6
:1044700000020003000180018000C00040006000D5
:10448000200030001000180008000C000400060096
:10449000020000000000000000000000000000001A
:1044A0000000C007600C30181830183018200C605D
:1044B0000C600C600C600C600C600C600C600C609C
:1044C0001820183018303018600CC00700000000A9
:1044D00000000000000000000000000000000000DC
:1044E000000000018001F80180018001800180014D
:1044F00080018001800180018001800180018001B4
:104500008001800180018001C003F81F00000000CD
:10451000000000000000000000000000000000009B
:104520000000E007101C0818043004300C300C3078
:104530000030001800080004000200018000400064
:104540002020102008200430FC1FFC1F0000000069
:10455000000000000000000000000000000000005B
:104560000000E003180E0C0C0C180C180C180018A6
:10457000000C0006C003000E0018001000300030D0
:104580000C300C300C100C18180CE003000000006C
:10459000000000000000000000000000000000001B
:1045A0000000000C000E000E000F800E800E400E6A
:1045B000600E200E100E100E080E040E040EFE7F6C
:1045C000000E000E000E000E000E000EC07F000058
:1045D00000000000000000000000000000000000DB
:1045E0000000F03FF03F100010001000080008002D
:1045F000C807280C181808100030003000300030B0
:104600000C300C3004180418080CF00300000000F3
:10461000000000000000000000000000000000009A
:104620000000800FC0102030103018001800080063
:104630000C008C0F6C183C301C600C600C600C6023
:104640000C601860182030306018C00700000000AF
:10465000000000000000000000000000000000005A
:104660000000F83FF83F1C100C0804080404000484
:1046700000020002000100010001800080008000B3
:10468000C000C000C000C000C000C00000000000AA
:10469000000000000000000000000000000000001A
:1046A0000000E007300C18180C300C300C301C30B7
:1046B00038187008E007B007180E0C1C06380630D2
:1046C0000630063006300C18180CE003000000001D
:1046D00000000000000000000000000000000000DA
:1046E0000000E00318040C080C1806100630063011
:1046F0000630063006380C3C1836F0310030001811
:10470000001800180C0C0C060C03F001000000004F
:104710000000000000000000000000000000000099
:104720000000000000000000000000000000000089
:104730008001C003C00380010000000000000000F1
:10474000000000008001C003C003800100000000E1
:104750000000000000000000000000000000000059
:104760000000000000000000000000000000000049
:10477000C000C000000000000000000000000000B9
:104780000000000000000000C000C00080008000A9
:104790004000400000000000000000000000000099
:1047A0000020001000080004000600038001C00083
:1047B0006000300018000C00180030006000C000DD
:1047C0008001000300060004000800100020000023
:1047D00000000000000000000000000000000000D9
:1047E00000000000000000000000000000000000C9
:1047F000FE7F00000000000000000000FE7F0000BF
:1048000000000000000000000000000000000000A8
:104810000000000000000000000000000000000098
:1048200004000800100020006000C00080010003A8
:104830000006000C001800300018000C00060003F1
:104840008001C0006000200010000800040000008B
:104850000000000000000000000000000000000058
:10486000C0073018083008600C601C601C601C60B9
:104870000030001C000600018000800080008000E5
:10488000000000008001C003C003800100000000A0
:104890000000000000000000000000000000000018
:1048A0000000C0076018103018200C2F8C4D864C6B
:1048B000C64CC64C664C664466446626662666153B
:1048C000CC1C0C40082018303018C0070000000035
:1048D00000000000000000000000000000000000D8
:1048E0000001C001C001C00140016003200320039A
:1048F00020033006100610061006F80F080C080CEE
:10490000080C0C0C0418041806181F7C000000008A
:104910000000000000000000000000000000000097
:104920000000FE07181C18381830183018301830DE
:104930001818180CF8071818183018201860186084
:1049400018601860186018301818FE0F000000007A
:104950000000000000000000000000000000000057
:104960000000C0276038103018200C400C400400B4
:104970000600060006000600060006000600060007
:104980000C400C400C2018303018C007000000000C
:104990000000000000000000000000000000000017
:1049A0000000FE03180E1818183018301830186060
:1049B0001860186018601860186018601860186037
:1049C0001830183018101818180EFE0300000000D8
:1049D00000000000000000000000000000000000D7
:1049E0000000FE3F18301820186018401800180802
:1049F0001808180CF80F180C1808180818001800D8
:104A000018001840184018201830FE3F0000000021
:104A10000000000000000000000000000000000096
:104A20000000FE7F1870184018C018801800181079
:104A300018101818F81F1818181018101800180057
:104A4000180018001800180018007E000000000070
:104A50000000000000000000000000000000000056
:104A60000000C013701C101018100C200C20040043
:104A70000600060006000600060006FC06300630AA
:104A80000C300C30183018303008C007000000001F
:104A90000000000000000000000000000000000016
:104AA00000003F7E0C180C180C180C180C180C1871
:104AB0000C180C180C18FC1F0C180C180C180C18DF
:104AC0000C180C180C180C180C183F7E0000000075
:104AD00000000000000000000000000000000000D6
:104AE0000000F81F800180018001800180018001A9
:104AF00080018001800180018001800180018001AE
:104B000080018001800180018001F81F0000000009
:104B10000000000000000000000000000000000095
:104B20000000E07F00060006000600060006000602
:104B30000006000600060006000600060006000645
:104B400000060006000600060006000600060E0627
:104B50000E038E01FC0000000000000000000000B9
:104B600000007E7C1818180818041806180218018E
:104B700098019801D801B803380318071806180ED1
:104B8000180C181C1818183018307EFC0000000093
:104B90000000000000000000000000000000000015
:104BA00000007E00180018001800180018001800F7
:104BB0001800180018001800180018001800180035
:104BC00018001840184018201830FE3F0000000060
:104BD00000000000000000000000000000000000D5
:104BE00000001FF81C381C381C381C3C343434348A
:104BF0003434343674326432643264326431C431F1
:104C0000C431C431C430C43084309FFC0000000083
:104C10000000000000000000000000000000000094
:104C200000001F7C1C103C103410341074106410F1
:104C3000E410C410C411841184130413041704165F
:104C4000041E041C041C041C04181F18000000008F
:104C50000000000000000000000000000000000054
:104C60000000C003300C181808100C300C3006601F
:104C70000660066006600660066006600660066004
:104C80000C200C3008101818300CC0030000000075
:104C90000000000000000000000000000000000014
:104CA0000000FE0F1818183018601860186018609F
:104CB000186018301818F80F18001800180018009D
:104CC000180018001800180018007E0000000000EE
:104CD00000000000000000000000000000000000D4
:104CE0000000C003300C18180C100C300C200660AB
:104CF0000660066006600660066006600660066084
:104D0000E4612C331C321816300EC007004C007CB6
:104D1000003800000000000000000000000000005B
:104D20000000FE07181C18381830183018301830DA
:104D30001818180CF807980318031807180618060F
:104D4000180E180C180C181C18187E78000000009B
:104D50000000000000000000000000000000000053
:104D60000000E027303818300C200C200C000C001C
:104D700018007800E003800F001E0038007000600B
:104D800004600460086018303818C80F0000000084
:104D90000000000000000000000000000000000013
:104DA0000000FC3F8C2184618241824180018001AE
:104DB00080018001800180018001800180018001EB
:104DC00080018001800180018001E0070000000077
:104DD00000000000000000000000000000000000D3
:104DE00000003F7C0C100C100C100C100C100C1060
:104DF0000C100C100C100C100C100C100C100C10D3
:104E00000C100C100C1008083804E003000000001F
:104E10000000000000000000000000000000000092
:104E200000003EF8182018201820301030103010E4
:104E30003010600860086008E00CC004C004C004C2
:104E40008003800380038003000100010000000054
:104E50000000000000000000000000000000000052
:104E60000000DFF38661862186218C210C218C23B2
:104E70008C138C138C134C1358125816580E380E72
:104E8000380E380E300C100410041004000000001E
:104E90000000000000000000000000000000000012
:104EA00000007E3E180838083004300470026002AA
:104EB000E001C001C00180018003400340072006DB
:104EC0002006100C100C081808183E7C000000008A
:104ED00000000000000000000000000000000000D2
:104EE00000007E7C1C10181018083008300C70046C
:104EF00060046002C002C002C00180018001800124
:104F000080018001800180018001E0070000000035
:104F10000000000000000000000000000000000091
:104F20000000F83F18180818040C040E00060007CB
:104F3000000380038001C001C000E0006000700039
:104F40003000382018201C100C18FE1F0000000034
:104F5000000000000000000000000000C03F400012
:104F60004000400040004000400040004000400041
:104F70004000400040004000400040004000400031
:104F80004000400040004000400040004000400021
:104F9000C03F000000000000000000000000000012
:104FA00008001800180010003000200060006000A9
:104FB0004000C00080008001800100010003000269
:104FC000000600060004000C00080018001800107D
:104FD000003000200000000000000000FC03000280
:104FE00000020002000200020002000200020002B1
:104FF00000020002000200020002000200020002A1
:105000000002000200020002000200020002000290
:10501000FC03000000000000000000008007C00644
:105020002008101000000000000000000000000038
:105030000000000000000000000000000000000070
:105040000000000000000000000000000000000060
:105050000000000000000000000000000000000050
:105060000000000000000000000000000000000040
:105070000000000000000000000000000000000030
:105080000000000000000000000000000000000020
:1050900000000000FFFF0000000000007800C000DA
:1050A00000010000000000000000000000000000FF
:1050B00000000000000000000000000000000000F0
:1050C00000000000000000000000000000000000E0
:1050D00000000000000000000000000000000000D0
:1050E00000000000000000000000000000000000C0
:1050F000F00318060C0C0C0C000C800F700C1C0C30
:105100000C0C060C060C064C0C4FF8380000000086
:10511000000000000000000000000000000000008F
:1051200010001E00180018001800180018001800C1
:10513000180FD81838303860186018601860186078
:1051400018601860182038307818C8070000000070
:10515000000000000000000000000000000000004F
:10516000000000000000000000000000000000003F
:10517000C007700C181818180C180C000C000C0044
:105180000C000C20182018103008C0070000000088
:10519000000000000000000000000000000000000F
:1051A0000010001E00180018001800180018001841
:1051B000E01B301C181818180C180C180C180C18B8
:1051C0000C180C180818181C307AE00900000000B0
:1051D00000000000000000000000000000000000CF
:1051E00000000000000000000000000000000000BF
:1051F000C007300C181808100C300C30FC3F0C00A5
:105200000C000C00182018107018C00700000000D7
:10521000000000000000000000000000000000008E
:105220000000003E80C380C0C0C0C000C000C000FD
:10523000FC1FC000C000C000C000C000C000C00013
:10524000C000C000C000C000C000F80F0000000097
:10525000000000000000000000000000000000004E
:10526000000000000000000000000000000000003E
:10527000C077306C10181818181818181018300C3F
:10528000F00718001800F00FF03F08700C600C6079
:105290000C603838E00F0000000000000000000043
:1052A00010001E0018001800180018001800180040
:1052B000980FD81838301830183018301830183087
:1052C000183018301830183018307EFC00000000FC
:1052D00000000000000000000000000000000000CE
:1052E0000000800380038003000000000000000134
:1052F000F80180018001800180018001800180012E
:1053000080018001800180018001F81F0000000001
:10531000000000000000000000000000000000008D
:1053200000000038003800380000000000000010C5
:10533000801F001800180018001800180018001826
:10534000001800180018001800180018001800189D
:10535000180C1806F0030000000000000000000018
:1053600010001E001800180018001800180018007F
:10537000183E180C1806180318019801D8013803B4
:1053800018071806180C181C18187E7C000000005E
:10539000000000000000000000000000000000000D
:1053A0000001F801800180018001800180018001FD
:1053B00080018001800180018001800180018001E5
:1053C00080018001800180018001F81F0000000041
:1053D00000000000000000000000000000000000CD
:1053E00000000000000000000000000000000800B5
:1053F000EE1C9C338C318C318C318C318C318C3166
:105400008C318C318C318C318C31DE7B0000000092
:10541000000000000000000000000000000000008C
:10542000000000000000000000000000000010006C
:105430001E0FD8183830183018301830183018307F
:10544000183018301830183018307EFC000000007A
:10545000000000000000000000000000000000004C
:10546000000000000000000000000000000000003C
:10547000C007701C103018300C600C600C600C60A1
:105480000C600C60183018303018C00700000000A5
:10549000000000000000000000000000000000000C
:1054A00000000000000000000000000000001000EC
:1054B0009E0F58183830182018601860186018604F
:1054C00018601860183038307818980718001800DD
:1054D000180018007E00000000000000000000001E
:1054E00000000000000000000000000000000000BC
:1054F000C023303C183818300C300C300C300C30D5
:105500000C300C3008301838303CE03300300030BC
:105510000030003000FC000000000000000000002F
:10552000000000000000000000000000000060001B
:105530007E3C60666061E000E0006000600060004A
:1055400060006000600060006000FE070000000076
:10555000000000000000000000000000000000004B
:10556000000000000000000000000000000000003B
:10557000E02730381830182018007000E003800F42
:10558000001C043004300C301C18EC0F000000002C
:10559000000000000000000000000000000000000B
:1055A000000000000000800080008000C000E000DB
:1055B000FC1FC000C000C000C000C000C000C00090
:1055C000C000C000C020C0208011000F00000000FB
:1055D00000000000000000000000000000000000CB
:1055E000000000000000000000000000000010208B
:1055F0001E3C183018301830183018301830183059
:10560000183018301830183830F4E013000000005B
:10561000000000000000000000000000000000008A
:10562000000000000000000000000000000000007A
:105630007E3C1818180838083004300470026002E4
:105640006002E001C001C001C00080000000000055
:10565000000000000000000000000000000000004A
:10566000000000000000000000000000000000003A
:10567000DFF78E630C238C238C2398139813581612
:105680005816700E700E700E2004200400000000EA
:10569000000000000000000000000000000000000A
:1056A00000000000000000000000000000000000FA
:1056B000FC3E70087004E004C002C0018003800357
:1056C00040076006200C100C18183E7E00000000F9
:1056D00000000000000000000000000000000000CA
:1056E00000000000000000000000000000000000BA
:1056F0007E7C1818180830083008300460046004F4
:10570000C002C002C00280018001800180008000D0
:1057100080004C003C000000000000000000000081
:105720000000000000000000000000000000000079
:10573000FC1F0C0C040E0406000380038001C00053
:10574000E0007020302038301C18FC1F00000000E2
:105750000000000000000000000000000030000811
:105760000004000400040004000400040004000419
:105770000004000400028001000200040004000490
:1057800000040004000400040004000400040004F9
:1057900000080030000000010001000100010001CC
:1057A00000010001000100010001000100010001F1
:1057B00000010001000100010001000100010001E1
:1057C00000010001000100010001000100010001D1
:1057D0000001000100010000000000000C001000AA
:1057E00020002000200020002000200020002000B9
:1057F0002000200040008001400020002000200008
:105800002000200020002000200020002000200098
:1058100010000C00000000003800C4008640026147
:105820000022001C0000000000000000000000003A
:105830000000000000000000000000000000000068
:105840000000000000000000000000000000000058
:10585000000000000000D0D51020102011201120E1
:10586000FDFC252026202420242049FC282010206F
:105870002820442083FE0000C3FB0200020007F042
:105880000810142062400280010006001FF8E8089A
:105890000808080808080FF80808C1F510040804EB
:1058A0000804FFA4022442242224142414240824DB
:1058B000082414242404420482140008C9D00100DE
:1058C00021081110092001003FF82008200827C8EE
:1058D00024482448244827C8200820282010D3EE34
:1058E000020001007FFE400280043FF80100010039
:1058F0000100FFFE0100010001000100050002009F
:10590000B0E000800080F8BE2288228822882288A9
:10591000FABE2288248820883908E108423E040023
:105920000800BCB6100013FC208420884888F8903A
:10593000109C20844144F944412801281A10E2288F
:1059400044440182D0C5084008200BFE100010001E
:1059500031FC3000500091FC1000100011FC1104CB
:10596000110411FC1104CFA2010002001FF010105D
:105970001FF010101FF010101FF01010010008840D
:105980004892481287F00000B9A4000000007FFC94
:1059900001000100010001000100010001000100FF
:1059A00001000100FFFE00000000B3CC08001DFC58
:1059B000F10411041104FDFC1000300039FE5420E4
:1059C000542091FC1020102013FE1000D1A72208B3
:1059D0001108111000207FFE400280041FE00040EB
:1059E0000180FFFE01000100010005000200BAC5B0
:1059F00000001FF01010101010101FF00000FF0F1B
:105A0000080010001FF000100010001000A000405F
:105A1000D6D00000000000000018000008000008B8
:105A200000000800080818F8FF1F180818180818C0
:105A3000180818180818180818180818F8FF1F0868
:105A4000080800080000080000080000080000180E
:105A500000001800001800000000BEB000000000A8
:105A60000000400006C0FF07400006C0FF074000DE
:105A700006C0FF07400802003000FEFF3F000000A4
:105A8000C0FF07C00002C00002C00002C0FF0380C8
:105A9000100080110160100E3010180C1E30001C18
:105AA00000000000D4B0000000000000080030F842
:105AB000FF1F08001008C010083F10080010080061
:105AC00010080013C8FF1008221008221008221026
:105AD00008221008211208211488601648C01328D3
